S01B00004F70656E526F766572436F6E74726F6C6C65722E7372656345
S11300000C9434000C9451000C9451000C94510045
S11300100C9451000C9451000C9451000C94510018
S11300200C9451000C9451000C9451000C947302E4
S11300300C9451000C9451000C9451000C945100F8
S11300400C9405060C9451000C943E060C9451003B
S11300500C9451000C9451000C9451000C945100D8
S11300600C9451000C94510011241FBECFEFD8E022
S1130070DEBFCDBF11E0A0E0B1E0E6EEF3E102C0E7
S113008005900D92A232B107D9F727E0A2E2B1E0C0
S113009001C01D92AA3EB207E1F70E9499060C9492
S11300A0F1090C940000FC010396928381832FEFE5
S11300B03FEF3483238396838583908787831082DD
S11300C00895FC01118610860895CF93DF939C0157
S11300D0FB01DC011196CD91DC911297D383C2838D
S11300E08C819D81958384838C819D81DC01139611
S11300F07C936E9312977D836C8331872087F901FB
S113010080818F5F8083DF91CF910895CF93DF93B8
S1130110EB01488159814F3F2FEF520721F4FC0135
S1130120A781B0850DC0DC01139601C0DF011296D2
S1130130ED91FC9113972081318142175307B0F759
S11301401296ED91FC911397FB83EA83D583C483C4
S1130150BD83AC831396DC93CE93129799878887DB
S1130160FC0120812F5F2083DF91CF910895CF93ED
S1130170DF93FC01A085B185C281D38184819581FF
S11301809D838C83C481D581828193819B838A835F
S113019011968D919C911297E817F90731F4848197
S11301A0958112969C938E931197118610868C914B
S11301B081508C93DF91CF910895CF93DF93EC011D
S11301C00E940B048091220190912301892B31F428
S11301D087E291E0909323018093220120912401EE
S11301E030912501C9018C0F9D1F8B3D45E094077B
S11301F070F42817390770F4C0912201D0912301BB
S1130200C20FD31F909325018093240105C0C0E041
S1130210D0E002C0C0E0D0E00E94CC04CE01DF9167
S1130220CF910895089531E1FC013083319722E2A2
S113023020833197A3E3A083319760833197708340
S113024031971082319760E860833197108231973B
S113025062E06083319763E06083319764E0608398
S1130260319765E06083319766E06083319767E09A
S11302706083319768E06083319769E060833197E8
S113028060E1608331973083319732E13083319775
S113029033E13083319734E13083319735E1308372
S11302A0319736E13083319737E13083319738E144
S11302B03083319739E13083319730E2308331979D
S11302C031E2308331972083319723E220833197C1
S11302D0408331975083319726E22083319727E278
S11302E02083319728E22083319729E220833197B4
S11302F020E32083319721E320838697089589EFB3
S113030090E09093890080938800E0E8F0E0808199
S11303108C7F80838BE080938100EFE6F0E0808126
S113032082608083A0915D07B0915E07CD91CDBFBF
S1130330DD91DEBFFF91EF91DF91CF91BF91AF913E
S11303409F918F917F916F915F914F913F912F91E9
S11303501F910F91FF90EF90DF90CF90BF90AF90DF
S11303609F908F907F906F905F904F903F902F90D1
S11303701F900F900FBE0F90089581E008950F9283
S11303800FB6F8940F921F9211242F923F924F921E
S11303905F926F927F928F929F92AF92BF92CF9211
S11303A0DF92EF92FF920F931F932F933F934F93FC
S11303B05F936F937F938F939F93AF93BF93CF93E9
S11303C0DF93EF93FF93A0915D07B0915E070DB6A5
S11303D00D920EB60D920E949E05A0915D07B091FC
S11303E05E07CD91CDBFDD91DEBFFF91EF91DF912F
S11303F0CF91BF91AF919F918F917F916F915F91B9
S11304004F913F912F911F910F91FF90EF90DF90AB
S1130410CF90BF90AF909F908F907F906F905F90A0
S11304204F903F902F901F900F900FBE0F90089504
S11304300F920FB6F8940F921F9211242F923F92AD
S11304404F925F926F927F928F929F92AF92BF92E0
S1130450CF92DF92EF92FF920F931F932F933F93CC
S11304604F935F936F937F938F939F93AF93BF93B8
S1130470CF93DF93EF93FF93A0915D07B0915E0755
S11304800DB60D920EB60D920E9411040E949E05A7
S1130490A0915D07B0915E07CD91CDBFDD91DEBF28
S11304A0FF91EF91DF91CF91BF91AF919F918F9188
S11304B07F916F915F914F913F912F911F910F9178
S11304C0FF90EF90DF90CF90BF90AF909F908F9070
S11304D07F906F905F904F903F902F901F900F9060
S11304E00FBE0F9008950E9418021895E0912507F9
S11304F0F09126078081811107C08FEF9FEF9093C1
S11305000607809305070895E0912507F0912607D3
S11305100580F681E02D0680F781E02D82819381AC
S1130520909306078093050708950F931F93CF9325
S1130530DF93EC0100910D0710910E0780915D0788
S113054090915E0702960E94B700C00FD11FE09100
S11305505D07F0915E07D383C283C017D10768F4A7
S113056060915D0770915E07809123079091240745
S11305706E5F7F4F0E94860017C060915D07709187
S11305805E0780912507909126076E5F7F4F0E943A
S113059086008091050790910607C817D90720F4B3
S11305A0D0930607C0930507DF91CF911F910F9158
S11305B008954F925F926F927F928F929F92AF9223
S11305C0BF92CF92DF92EF92FF920F93CF93DF937C
S11305D04C016B015A012901CA010E94DD003C0152
S11305E0892B09F4DDC086E290E00E94DD00EC0175
S11305F0892B71F0788E6F8A81E0A81AB108A60C55
S1130600B71CD6018C91898F8C91811105C018C0BB
S1130610C3010E941201C4C0AE01465E5F4FF601E1
S11306203196B8E0CB0ED11CCF012191DA012D9384
S1130630AD01DC018C91882319F0EC15FD05A1F7BF
S113064018A2043008F003E00E8B6E01B2E0CB0E6A
S1130650D11CC6010E946100CE010C960E9461006B
S1130660D987C88784E090E0801B91099D878C8797
S1130670DB8BCA8B19A21AA21BA21CA21DA2A20167
S1130680B401C5010E94130199838883E114F10424
S113069019F0F701D183C0830FB6F8940F928091BB
S11306A00F078F5F80930F0780915D0790915E071E
S11306B0892BA9F5D0935E07C0935D0780910F073E
S11306C08130E9F589E397E00E94530082E497E0E2
S11306D00E9453008BE497E00E94530084E597E066
S11306E00E94530080E397E00E94530087E297E062
S11306F00E9453008AE197E00E94530081E197E051
S11307000E94530080E397E0909326078093250787
S113071087E297E0909324078093230710C0809189
S11307200B0781110CC0E0915D07F0915E0796897B
S11307308E89891720F0D0935E07C0935D0780915E
S113074007078F5F809307078E8990910C0798178E
S113075010F480930C0790E09C01220F331F220FAA
S1130760331F220F331F820F931FB601875C984FEC
S11307700E9465000F900FBE80910B07882361F0E3
S1130780E0915D07F0915E0796898E89981730F4A1
S11307900E94BF0181E005C081E003C081E001C087
S11307A08FEFDF91CF910F91FF90EF90DF90CF907B
S11307B0BF90AF909F908F907F906F905F904F907D
S11307C00895EF92FF920F930F2EF3E0EF2EF7E0D0
S11307D0FF2EF02D00E020E030E045E550E064E03D
S11307E071E08FE595E00E94D902813081F4F8949C
S11307F08FEF9FEF909306078093050781E0809326
S11308000B0710920E0710920D070E947F010F91A3
S1130810FF90EF900895809102078F5F8093020705
S11308200895CF92DF92EF92FF920F931F93CF938D
S1130830DF9380910207811199C0E0900D07F09039
S11308400E078FEFE81AF80AF0920E07E0920D07F0
S1130850E114F104B9F480912507909126072091C1
S1130860230730912407309326072093250790937C
S1130870240780932307809108078F5F80930807DC
S11308800E9476028091050790910607E816F90602
S113089010F4D12C53C0D12CCC24C394E09125075F
S11308A0F09126078081811107C08FEF9FEF90930D
S11308B006078093050742C0E0912507F0912607BB
S11308C00580F681E02DC681D7818A819B81E81657
S11308D0F90628F490930607809305072FC08E012C
S11308E00E5F1F4FC8010E94B7008C899D89892B18
S11308F021F0CE010C960E94B7008E8990910C07CE
S1130900981710F480930C0790E09C01220F331F7A
S1130910220F331F220F331F820F931FB801875CEE
S1130920984F0E946500E0915D07F0915E079E89F3
S11309308689981708F4B2CFDC2CB0CFE0915D071C
S1130940F0915E07868990E0FC01EE0FFF1FEE0F29
S1130950FF1FEE0FFF1F8E0F9F1FFC01E75CF84F78
S11309608081823048F0DD24D39406C080910A0748
S11309708F5F80930A07D12C80910907882311F097
S1130980DD24D3948D2DDF91CF911F910F91FF9092
S1130990EF90DF90CF900895DF92EF92FF920F9344
S11309A01F93CF93DF930FB6F8940F9280910207B1
S11309B08150809302078091020781115FC080916A
S11309C00F07811133C05DC0D7011596ED91FC91DD
S11309D01697C681D781CE010C960E94B7008E016E
S11309E00E5F1F4FC8010E94B7008E8990910C07BB
S11309F0981710F480930C0790E09C01220F331F8A
S1130A00220F331F220F331F820F931FB801875CFD
S1130A10984F0E946500E0915D07F0915E079E8902
S1130A208689981768F0D09209070AC0C0E0D0E020
S1130A300F2EFAE1EF2EF7E0FF2EF02DDD24D394F4
S1130A40F70180818111C0CFCD2B11F00E94760275
S1130A50C0910A07CC2351F0D1E00E941104811106
S1130A60D0930907C150C9F710920A07809109076A
S1130A70882331F00E94BF0181E003C080E001C0FF
S1130A8080E00F900FBEDF91CF911F910F91FF90E7
S1130A90EF90DF900895CF93DF93EC01892B51F011
S1130AA00E940B0460E0CE010E9495020E94CC04D7
S1130AB0811102C00E94BF01DF91CF91089501E12D
S1130AC017E00F2EF9E3EF2EF7E0FF2EF02D29C0EB
S1130AD00E940B04D801CC910E94CC04CC2309F1D0
S1130AE00FB6F8940F92D8011596ED91FC911697D4
S1130AF0C681D781CE0102960E94B70080910F076C
S1130B00815080930F0780911007815080931007C4
S1130B100F900FBE8F89988D0E941201CE010E9402
S1130B201201809110078111D3CFF70180818230A7
S1130B3010F00E94BF010E940406F3CF80910207C7
S1130B40882321F081E08093090708951092090712
S1130B5020910C07822F90E0FC01EE0FFF1FEE0F97
S1130B60FF1FEE0FFF1FE80FF91FE75CF84F3081FE
S1130B70311111C02150822F90E0FC01EE0FFF1FB4
S1130B80EE0FFF1FEE0FFF1FE80FF91FE75CF84F92
S1130B903081332379F3AC01440F551F440F551FA3
S1130BA0440F551F480F591FDA01A75CB84F11961F
S1130BB0ED91FC9112970280F381E02D1296FC9343
S1130BC0EE931197445C584FE417F50729F44281DA
S1130BD05381FD0152834183FC01EE0FFF1FEE0F91
S1130BE0FF1FEE0FFF1F8E0F9F1FFC01E75CF84FE6
S1130BF00180F281E02D8681978190935E07809336
S1130C005D0720930C07089508951F920F920FB665
S1130C100F9211242F933F934F935F936F937F937E
S1130C208F939F93AF93BF93EF93FF9320E030E0B4
S1130C3048EC52E460916207709163078091640705
S1130C40909165070E94960720E030E04FE753E457
S1130C500E94C5080E94080867BDFF91EF91BF91EB
S1130C60AF919F918F917F916F915F914F913F9140
S1130C702F910F900FBE0F901F9018951F920F92F7
S1130C800FB60F9211248F939F93EF93FF9380914C
S1130C9060079091C600E82FF0E0E659F84F908382
S1130CA08F5F1AF08093600702C0109260078091F2
S1130CB05F07813818F48F5F80935F07FF91EF918E
S1130CC09F918F910F900FBE0F901F9018952098B1
S1130CD0579828985F98089580E48AB983E884BD7A
S1130CE081E080936E0020E030E048EC52E46091B3
S1130CF062077091630780916407909165070E9471
S1130D00960720E030E04FE753E40E94C5080E94B4
S1130D10080867BD82E085BD08951092C50087E686
S1130D208093C40088E98093C10086E08093C20068
S1130D300895EF92FF920F930E9467060E948D061A
S1130D400E946C06E12CF12C05E020E030E040E844
S1130D5050E069E071E08DE897E00E94D90220E05C
S1130D6030E040E850E067E171E08CED96E00E94ED
S1130D70D9020E94E10380E090E00F91FF90EF9090
S1130D8008959091610780916007981771F0E92F99
S1130D90F0E0E659F84F80819F5F9093610790914E
S1130DA05F07915090935F07089580E008950E9433
S1130DB07E090E947E0908950E94D7068AEF90E07A
S1130DC00E944B05F9CF682F880F770B880B990B7E
S1130DD00E943908609362077093630780936407E5
S1130DE09093650728985F980895682F880F770B6C
S1130DF0880B990B0E94390860936207709363070C
S1130E00809364079093650728985F9A0895682FE4
S1130E10880F770B880B990B0E943908609362073F
S1130E20709363078093640790936507289A5F988B
S1130E300895682F880F770B880B990B0E94390847
S1130E4060936207709363078093640790936507C8
S1130E50289A5F9A0895109262071092630710927D
S1130E6064071092650728985F9A08958091660731
S1130E70882339F1E7E6F7E090818181392F38271B
S1130E80228132131AC0923061F01CF4913031F097
S1130E9011C0933049F0943051F00CC00E94E30625
S1130EA00EC00E94F5060BC00E94190708C00E94DC
S1130EB0070705C00E942B0702C00E942B0710924F
S1130EC0660708950F931F93CF93DF93C0E0D0E09C
S1130ED011E000E015C00E94C106DD2371F0C330AB
S1130EE060F4EC2FF0E0E959F84F8083CF5FC33012
S1130EF021F410936607C0E0D02F8F3F09F4D12F5F
S1130F0080915F07882321F080916607882319F375
S1130F10DF91CF911F910F9108950E9462070E9463
S1130F20360784E690E00E944B05F7CF0E94AA079B
S1130F300C948B080E94840858F00E947D0840F0AD
S1130F4029F45F3F29F00C94740851110C94BF08E4
S1130F500C947A080E949C0868F39923B1F35523F2
S1130F6091F3951B550BBB27AA27621773078407B8
S1130F7038F09F5F5F4F220F331F441FAA1FA9F34E
S1130F8035D00E2E3AF0E0E832D091505040E6953C
S1130F90001CCAF72BD0FE2F29D0660F771F881F9D
S1130FA0BB1F261737074807AB07B0E809F0BB0B90
S1130FB0802DBF01FF2793585F4F3AF09E3F5105A4
S1130FC078F00C9474080C94BF085F3FE4F3983EE7
S1130FD0D4F3869577956795B795F7959F5FC9F78D
S1130FE0880F911D9695879597F90895E1E0660F0E
S1130FF0771F881FBB1F621773078407BA0720F087
S1131000621B730B840BBA0BEE1F88F7E0950895EF
S11310100E94A40888F09F5798F0B92F9927B751D8
S1131020B0F0E1F0660F771F881F991F1AF0BA9588
S1131030C9F714C0B13091F00E94BE08B1E0089520
S11310400C94BE08672F782F8827B85F39F0B93F12
S1131050CCF3869577956795B395D9F73EF490953B
S11310608095709561957F4F8F4F9F4F0895E894B9
S113107009C097FB3EF490958095709561957F4FDC
S11310808F4F9F4F9923A9F0F92F96E9BB2793958A
S1131090F695879577956795B795F111F8CFFAF49A
S11310A0BB0F11F460FF1BC06F5F7F4F8F4F9F4FCB
S11310B016C0882311F096E911C0772321F09EE829
S11310C0872F762F05C0662371F096E8862F70E08F
S11310D060E02AF09A95660F771F881FDAF7880F69
S11310E09695879597F9089597F99F6780E870E03A
S11310F060E008959FEF80EC089500240A9416168A
S1131100170618060906089500240A9412161306F1
S1131110140605060895092E0394000C11F488237F
S113112052F0BB0F40F4BF2B11F460FF04C06F5F9B
S11311307F4F8F4F9F4F089557FD9058440F551F71
S113114059F05F3F71F04795880F97FB991F61F045
S11311509F3F79F087950895121613061406551FBC
S1131160F2CF4695F1DF08C0161617061806991F28
S1131170F1CF86957105610508940895E894BB271D
S113118066277727CB0197F908950E94D8080C9415
S11311908B080E947D0838F00E94840820F0952373
S11311A011F00C9474080C947A0811240C94BF0860
S11311B00E949C0870F3959FC1F3950F50E0551F52
S11311C0629FF001729FBB27F00DB11D639FAA2798
S11311D0F00DB11DAA1F649F6627B00DA11D661FE7
S11311E0829F2227B00DA11D621F739FB00DA11D08
S11311F0621F839FA00D611D221F749F3327A00DC2
S1131200611D231F849F600D211D822F762F6A2F5D
S113121011249F5750409AF0F1F088234AF0EE0FC2
S1131220FF1FBB1F661F771F881F91505040A9F7EF
S11312309E3F510580F00C9474080C94BF085F3FE6
S1131240E4F3983ED4F3869577956795B795F7952B
S1131250E7959F5FC1F7FE2B880F911D96958795A3
S113126097F908958F929F92AF92BF92CF92DF9297
S1131270EF92FF92CF93DF93EC01688179818A81A9
S11312809B81611571058105910521F464E279ED75
S11312908BE597E02DE133EF41E050E00E948E09A9
S11312A049015A019B01AC01A7EAB1E40E94AD09CE
S11312B06B017C01ACEEB4EFA50194010E94BB0963
S11312C0DC01CB018C0D9D1DAE1DBF1DB7FF03C0FE
S11312D00197A109B04888839983AA83BB839F7728
S11312E0DF91CF91FF90EF90DF90CF90BF90AF90C0
S11312F09F908F9008950E943209089580E091E0B4
S11313000E9432090895A0E0B0E080930001909318
S11313100101A0930201B09303010895052E97FBE8
S11313201EF400940E94A50957FD07D00E94C0092D
S113133007FC03D04EF40C94A509509540953095C4
S113134021953F4F4F4F5F4F08959095809570952D
S113135061957F4F8F4F9F4F08950E94E209A59F8B
S1131360900DB49F900DA49F800D911D112408959C
S1131370B7FF0C94AD090E94AD09821B930B08952D
S1131380A1E21A2EAA1BBB1BFD010DC0AA1FBB1F85
S1131390EE1FFF1FA217B307E407F50720F0A21BF7
S11313A0B30BE40BF50B661F771F881F991F1A9464
S11313B069F760957095809590959B01AC01BD018E
S11313C0CF010895A29FB001B39FC001A39F700DE8
S11313D0811D1124911DB29F700D811D1124911D39
S10913E00895F894FFCF0C
S11313E60100000049444C4500636F6E74726F6CD3
S11313F64D6F746F72730068616E646C65446174DA
S105140661007F
S9030000FC
